:020000040800F2
:10000000500E0020010100083B240008392100089F
:10001000392400083F070008092F000800000000ED
:10002000000000000000000000000000DB270008C6
:100030007707000800000000D9270008DD27000826
:100040001B0100081B0100081B0100081B01000820
:100050001B0100081B0100081B0100081B01000810
:100060001B0100081B0100081B0100081B01000800
:100070001B010008410700081B0100081B010008C4
:100080001B0100081B0100081B0100081B010008E0
:100090001B0100081B0100081B0100081B010008D0
:1000A0001B010008412800081B0100081B01000873
:1000B0001B0100081B0100081B0100081B010008B0
:1000C0001B0100081B0100081B0100081B010008A0
:1000D0001B010008A92E0008B52E0008C12E00083B
:1000E000790700081B0100081B010008DFF80CD08D
:1000F00000F0F2FA0048004799390008500E00203D
:100100000648804706480047FEE7FEE7FEE7FEE7B1
:10011000FEE7FEE7FEE7FEE7FEE7FEE73F28000812
:10012000ED000008202A04DB203A21FA02F0002129
:10013000704721FA02F3D040C2F1200291400843F7
:1001400019467047D2B201E000F8012B491EFBD2DC
:1001500070470022F6E710B513460A4604461946D2
:10016000FFF7F0FF204610BD30B5044600200346DF
:1001700000E05B1C934203D2E05CCD5C401BF8D0F6
:1001800030BD2DE9F04D81EA030404F0004B21F06D
:10019000004514464FF0000A23F0004150EA0502E2
:1001A00020D054EA01021DD0C5F30A570246C5F318
:1001B0001303C1F31300C1F30A5640F4801543F44E
:1001C0008013A7EB0608101BD64608F2FD3873EB28
:1001D000050002D308F1010801E092185B41B8F173
:1001E000000F03DA00200146BDE8F08D00204FF437
:1001F0008011064684460EE0171B73EB050705D3F6
:10020000121B63EB050306434CEA010C49084FEA55
:10021000300092185B4150EA0107EDD152EA030029
:1002200012D082EA040083EA0501084305D0101BBE
:10023000AB4106D20122002306E000224FF000432A
:1002400002E06FF0010253101AEB06004CEB08516C
:1002500010EB0A0041EB0B01BDE8F04D00F096B841
:1002600096230022114600F063B800F0004230F0FF
:1002700000400AD0C10D01F56071C0F3160042EADA
:100280000151C208400711437047002001467047E2
:1002900030B50B46014600202022012409E021FA56
:1002A00002F59D4205D303FA02F5491B04FA02F553
:1002B0002844151EA2F10102F1DC30BD2DE9F05FEA
:1002C0000546002092469B468846064681464024C5
:1002D0001BE02846414647462246FFF723FF534688
:1002E0005A46C01A914110D311461846224600F0D2
:1002F00005FA2D1A67EB01084F462246012000211E
:1003000000F0FCF917EB00094E41201EA4F1010496
:10031000DFDC484631462A464346BDE8F09F0029C7
:10032000A8BF7047401C490008BF20F0010070477B
:1003300010B4B0FA80FC00FA0CF050EA010404BFDB
:1003400010BC704749B1CCF1200421FA04F411FA31
:100350000CF118BF012121430843A3EB0C01CB1D75
:100360004FEA00614FEA102042BF002010BC7047E6
:1003700000EBC35010440029A4BF10BC7047401CC0
:10038000490008BF20F0010010BC704710B5141ED2
:1003900073F1000408DA401C41F1000192185B413E
:1003A0001A4301D120F0010010BD2DE9F04D924615
:1003B0009B4611B1B1FA81F202E0B0FA80F220322C
:1003C000904600F09BF904460F4640EA0A0041EAD5
:1003D0000B0153465A46084313D0114653EA010015
:1003E00019D0C8F140025046FFF79CFE05460E4664
:1003F00050465946424600F081F9084305D0012095
:1004000004E020463946BDE8F08D0020054346EA69
:10041000E0762C4337430A986305E40AA0EB080012
:100420000022FD0A44EA47540A3002D50020014662
:10043000E9E7010510196941DDE90845001969413D
:10044000BDE8F04DA2E72DE9FE4F804681EA0300AA
:10045000C00F0C46009021F0004123F00045B8EB9E
:100460000200A94105D24046214690461C460B4653
:10047000024623F00040104347D0270DC7F30A007F
:10048000C3F30A510290401A019040286BDAC3F37B
:10049000130040F4801B0098924620B10023D2EB59
:1004A000030A63EB0B0B01985946C0F1400250461A
:1004B00000F024F906460D4650465946019A00F0D0
:1004C0002CF910EB08006141002487EA115284EAFC
:1004D000E7731A4340D0009A62B3019A012A4FEAA7
:1004E000075215DC001B61EB02014FF0004202EAEB
:1004F0000752CDE90042001C41F5801132462B46DF
:10050000FFF753FF03B0BDE8F08F40462146F9E7FF
:10051000001B61EB0201001C41F5801300185B41D8
:100520002018A2F5001747EB030140EAD570B61971
:100530006D4111E06D084FEA360645EAC0754FEA95
:100540000752001B61EB0201001C41F580114908B4
:100550004FEA30000019514132462B4603B0BDE846
:10056000F04FFFF713BF0098012240000023D0EBAB
:10057000020263EBE073009821464FEAE074B8EBA7
:10058000000061EB0401E9E783F000435BE781F0E1
:10059000004158E72DE9FE4F81EA030404F00044CE
:1005A00021F0004100944FF0000B23F0004350EA8B
:1005B00001045ED052EA03045BD0C3F30A54C1F3D2
:1005C0000A552C44A4F2F3340194A0FB0254C1F365
:1005D000130141F48011C3F3130343F4801301FBAF
:1005E000024400FB034E840A970A44EA815447EA16
:1005F0008357A4FB076802958D0A05FB07854FEA20
:10060000932C04FB0C542705029D4FEA065847EA39
:100610001637B5EB08056EEB070C870E920E47EA0E
:10062000811742EA8312A7FB0201B6EB0B0164EBD0
:1006300000042B0D43EA0C335E1844EB1C50DA46E1
:100640005146E7FB0201C5F313044FEA0B3343EABB
:1006500014534FEA0432019C43EA0603A4F10C044C
:100660000294009CCDE900B4FFF79FFE03B0BDE803
:10067000F08F00200146F9E7C1F30A52C1F31301DC
:1006800040F2FF3341F480119A4202DA0020014621
:10069000704740F233439A42A2F2334202DC5242A4
:1006A000FFF740BD00F02AB830B5041E71F1000418
:1006B00004DB4FF00044404264EB0101141E73F16F
:1006C000000405DB1C464FF00043524263EB040379
:1006D000994208BF904230BD064C074D06E0E068E5
:1006E00040F0010394E8070098471034AC42F6D379
:1006F000FFF700FDC45A0008E45A0008202A04DB72
:10070000203A00FA02F1002070479140C2F1200324
:1007100020FA03F3194390407047202A06DBCB17D9
:10072000203A41FA02F043EAE07306E041FA02F3AC
:10073000D040C2F120029140084319467047FEE7BD
:10074000014800F099B80000080A002030B590F880
:1007500040500124AC40C56B6C6004686360436822
:10076000102B036803D099600068C26030BD9A60A6
:100770000068C16030BD704710B54FF4805000F084
:10078000E1F94FF4005000F0DDF9BDE810404FF4FE
:10079000804000F0D7B972B6FEE710B590F821108E
:1007A0000022022905D00421816380F82020012045
:1007B00010BD01680B6823F00E030B6001680B6825
:1007C00023F001030B6090F84030C46B012101FA63
:1007D00003F3636080F8211080F82020104610BDDC
:1007E00010B590F821100024022903D00421816360
:1007F00001243DE001680A6822F00E020A600168E7
:100800000A6822F001020A601A4A0168914201D185
:10081000012121E0174A1432914201D110211BE03D
:10082000144A2832914201D1891515E0114A3C320F
:10083000914201D189140FE00E4A5032914202D107
:100840004FF4803108E00B4A6432914202D14FF4F8
:10085000801101E04FF08071064A083A5160012191
:1008600080F82110002180F82010416B01B18847E9
:10087000204610BD080002402DE9F05FC16B0C68F6
:1008800001680B68D0F840C0042202FA0CF2494D0E
:10089000DFF824A1494E4A4FDFF828B1DFF828E1FC
:1008A00022422CD05A072AD50A68920603D40A6835
:1008B00022F004020A600168A94201D1042219E071
:1008C000514501D1402215E0B14202D14FF480627E
:1008D00010E0B94202D14FF480420BE0594502D1F9
:1008E0004FF4802206E0714502D14FF4800201E00E
:1008F0004FF080622F4908394A60C16A3BE04FF0EF
:10090000020808FA0CF818EA040F4FF000094FF03B
:10091000010235D05FEA837832D50B689B0605D497
:100920000B6823F00A030B6080F821200168A942BC
:1009300001D1022219E0514501D1202215E0B14236
:1009400002D14FF4007210E0B94202D14FF40052CC
:100950000BE0594502D14FF4003206E0714502D157
:100960004FF4001201E04FF00072124908394A605A
:1009700080F82090816A00291AD0BDE8F05F08470E
:10098000082505FA0CF5254212D01B0710D50B6877
:1009900023F00E030B6090F84010C36B02FA01F1D4
:1009A0005960826380F8212080F82090016BE2E793
:1009B000BDE8F09F080002401C00024030000240E9
:1009C00044000240580002406C00024030B528B399
:1009D00008C8134914221944B1FBF2F18900C1631C
:1009E00010498163022141771A6843F6F0718A4306
:1009F000D0E900142143D0E902452C432143046986
:100A00002143446921438469214311431960002132
:100A10004163012242770177084630BD012030BD95
:100A2000F8FFFDBF0000024070B5044690F82000BA
:100A3000002501280CD0012084F8200094F82160C2
:100A40000020012E06D084F820000225284670BD23
:100A5000022070BD022684F82160A0632068066829
:100A600026F0010606602046FFF770FEE06A0028C7
:100A70002068016802D041F00E0106E021F0040177
:100A800001602068016841F00A0101602068016886
:100A900041F001010160D9E770B5044600F058F952
:100AA0000546601C02D004480078044400F050F968
:100AB000401BA042FAD370BD1C00002010B51D4998
:100AC000B0F5805F10D01C4CB0F5005F20D0B0F5C1
:100AD000804F18D1887890F001008870174820D096
:100AE000BDE8104000F0E0BC087890F0010008700C
:100AF00013484FF0080107D000F0DEFE10494FF414
:100B000096700968C86310BDBDE8104000F022BFB0
:100B1000487880F00100487080F001024FF40071C5
:100B200003E000F0EDFC012280212046BDE81040EA
:100B300000F009B901000020000C0140AC040020C5
:100B4000F4040020044910B50A68024202D008608B
:100B5000FFF7B4FF10BD0000140401402DE9F84F69
:100B6000DFF8B8910024A9F1040B23460F2709F1FF
:100B7000040AABF1040EC9E00125A5402A40AA42AF
:100B80007DD1674ED1F804C0ACEB0608B44532D035
:100B900014DCBCF1030F3AD009DCBCF1000F2AD001
:100BA000BCF1010F1CD0BCF1020F31D11DE0BCF132
:100BB000110F17D0BCF1120F2AD119E0B8F5881F18
:100BC00019D006DCB8F5803F15D0B8F5801F1FD1CD
:100BD00011E0B8F5001F0ED0B8F5041F18D10AE0D7
:100BE000CB6815E0CB681B1D12E0CB6808330FE023
:100BF000CB680C330CE08B682BB1012B4FF0080352
:100C000003D0456104E0042302E0056100E0002315
:100C1000FF2A01D8064601E000F104064FEA8405E8
:100C200001D9A5F12005D6F8008007FA05FC28EACD
:100C30000C0803FA05F548EA0508C6F800804D6877
:100C4000ED0062D5374DAE6946F00106AE61AD6983
:100C500024F0030605F001050095334D06EB050C65
:100C6000DCF80850A607360F07FA06F825EA08054B
:100C7000DFF8B880404503D14FF0000817E044E0AA
:100C8000DFF8AC80404502D14FF001080FE0DFF8FB
:100C9000A480404502D14FF0020808E0DFF89880B8
:100CA000404502D14FF0030801E04FF0040808FA74
:100CB00006F848EA0508CCF808804D68D9F80060C5
:100CC000ED024D4601D5164300E096432E604D6877
:100CD000DAF80060AD02554601D5164300E09643B0
:100CE0002E604D68DBF80060AD035D4601D516430C
:100CF00000E096432E604D68DEF80060ED03754617
:100D000001D5164300E096432E60641C0D682A4608
:100D1000E5407FF431AFBDE8F88F000008040140E2
:100D200000001110001002400000014000080140C6
:100D3000000C014000100140001401408068084090
:100D400000D0012070470AB1016170470904FBE738
:100D500001488068704700001C000020024881683C
:100D600002781144816070471C000020074810B5CC
:100D7000016841F010010160032000F075F80F20B8
:100D800000F006F800F024F8002010BD002002401A
:100D900070B50D4D04464FF47A712878B1FBF0F030
:100DA0000A490968B1FBF0F000F0DCFA48B9102CF0
:100DB00007D200222146501E00F036F800206C6059
:100DC00070BD012070BD00001C0000202800002024
:100DD0000C4808B5816941F001018161816901F028
:100DE00001010091C16941F08051C161C06900F009
:100DF000805000900448416821F0E06141F00071AA
:100E0000416008BD0010024000000140002809DBDD
:100E100000F01F02012191404009800000F1E02014
:100E2000C0F8001170470000F0B40E4B1B680C4670
:100E3000C3F30223C3F10705042D00D90425191DAE
:100E4000072901D2002300E0DB1E012606FA05F186
:100E5000491E214099409E40761E16403143F0BC09
:100E600002F068B80CED00E0064900F007020868DF
:100E70004FF6FF03184040EA0220034A104308607F
:100E8000704700000CED00E00000FA052DE9F04786
:100E90000F46050061D0434E306800F00700B842AD
:100EA00009D2306820F0070038433060306800F025
:100EB0000700B84251D128683B4C810712D5400742
:100EC00003D5606840F4E06060602878000703D5CF
:100ED000606840F4605060606068A96820F0F000CD
:100EE000084360602878C00728D06868012810D0BF
:100EF0002168022810D0890700292EDA616821F0C4
:100F0000030101436160FFF723FF804641F2883906
:100F10000DE021688903EFE78901EDE7FFF718FF8E
:100F2000A0EB0801494502D90320BDE8F0876068BD
:100F3000696800F00C00B0EB810FEFD1306800F071
:100F40000700B8420BD9306820F007003843306002
:100F5000306800F00700B84201D00120E5E72878AA
:100F6000400705D56068E96820F4E06008436060E8
:100F70002878000706D56068296920F4605040EAA7
:100F8000C100606000F038F86168084AC1F30311DD
:100F9000515CC8400649086006480068FFF7F8FE43
:100FA0000020C2E70020024000100240AA5A0008B8
:100FB00028000020200000200448054900684968F6
:100FC000044AC1F30221515CC84070472800002048
:100FD00000100240BA5A00080448054900684968F0
:100FE000044AC1F3C221515CC84070472800002068
:100FF00000100240BA5A00080E4A51680E4801F02B
:101000000C03042B11D0082B0FD10C48C1F38343E0
:10101000C903C05C0AD55168084AC1F34041921E19
:10102000515C054A5043B0FBF1F070470449484316
:10103000704700000010024000127A009A5A00081F
:1010400000093D002DE9F84F040070D02078C04D14
:10105000C00749D06868C0F38100012807D06868DC
:10106000C0F38100022809D16868C00306D528684A
:10107000800339D560680028E7D035E06068B0F5B6
:10108000803F0BD010B1B0F5A02F11D0286820F40C
:1010900080302860286820F4802002E0286840F42E
:1010A00080302860606890B1FFF752FE06460AE083
:1010B000286840F480202860F0E700BFFFF748FE72
:1010C000801B642873D828688003F7D50CE0FFF7ED
:1010D0003FFE064605E000BFFFF73AFE801B64288E
:1010E000F0D828688003F7D420789A4E80074FF014
:1010F00001094FF0000839D5686810F00C0F07D0CF
:101100006868C0F38100022809D16868C00306D46A
:101110002868800714D52069012808D110E02069CB
:10112000B0B1C6F80090FFF713FE074605E00AE1EC
:10113000FFF70EFEC01B0228C4D828688007F7D529
:101140002868616920F0F80040EAC10028600DE0DD
:10115000C6F80080FFF7FCFD074604E0FFF7F8FD46
:10116000C01B022823D828688007F7D420780007FE
:101170002CD57948A169D9B1C0F80090FFF7E8FDF6
:10118000074604E0FFF7E4FDC01B02280FD8686A99
:101190008007F7D571484FF4FA510068B0FBF1F0C1
:1011A000009000BF0098411E0091FAD20EE080E04E
:1011B000C0F80080FFF7CCFD074604E0FFF7C8FD4C
:1011C000C01B022875D8686A8007F7D420784007CA
:1011D00060D5E8690027C00008D4E86940F0805075
:1011E000E861E869012700F0805000905C480168E0
:1011F000C90513D40168834641F480710160FFF78B
:10120000A7FD824606E000BFFFF7A2FDA0EB0A00A3
:1012100064284ED8DBF80000C005F5D5E068012849
:101220000AD008B1052813D0286A20F001002862EE
:10123000286A20F0040002E0286A40F001002862D9
:10124000E06841F2883B98B1FFF782FD82460BE0EF
:10125000286A40F004002862EEE700BFFFF778FD3F
:10126000A0EB0A0159455AD8286A8007F6D50CE048
:10127000FFF76EFD824605E0FFF76AFDA0EB0A016D
:1012800059454CD8286A8007F6D41FB1E86920F088
:101290008050E861E06988B36968C1F3810102297F
:1012A00044D00228C6F8608004D0FFF751FD044600
:1012B00038E034E0FFF74CFD074604E0FFF748FD57
:1012C000C01B02282BD828688001F7D4206AB0F50B
:1012D000803F05D16868A16820F400300843686049
:1012E000D4E908010843696821F47411084368606F
:1012F000C6F86090FFF72CFD044606E025E000BF2D
:10130000FFF726FD001B022809D828688001F7D5C1
:101310001BE000BFFFF71CFD001B022802D90320C1
:10132000BDE8F88F28688001F4D40EE00128F7D0DA
:101330006868226A00F48031914204D1616A00F445
:101340007010884201D00120EAE70020E8E70000A1
:101350000010024000004242800442422800002067
:101360000070004010B5401EB0F1807F01D3012015
:1013700010BD4FF0E02460610F21601701F0DAFD2D
:101380000020A06107202061002010BD7047704739
:1013900070B590F83C20012A26D0012480F83C400A
:1013A000022280F83D2003685A689D6822F070068A
:1013B0000A6832435A600D4B02689A4208D0B2F173
:1013C000804F05D00A4B9A4202D00A4B9A4204D170
:1013D000496825F080031943916080F83D40002161
:1013E00080F83C10084670BD022070BD002C014002
:1013F000000400400008004010B5040003D094F839
:101400003D0010B107E0012010BD002084F83C0031
:10141000204600F01FF8022084F83D00211D2068BE
:1014200001F014FA012084F8460084F83E0084F8A4
:101430003F0084F8400084F8410084F8420084F8BA
:10144000430084F8440084F8450084F83D000020FF
:1014500010BD000008B5114A01681148914211D130
:10146000816941F4006181618069002200F40060BB
:10147000009004211920FFF7D7FCBDE8084019208F
:10148000FFF7C4BC074A914207D1C16941F004018A
:10149000C161C06900F00400009008BD002C01404B
:1014A000001002400008004090F83D10012901D0D2
:1014B00001207047022180F83D100168CA6842F09F
:1014C0000102CA6000680B49884208D0B0F1804F21
:1014D00005D00949884202D00849884204D1816870
:1014E00001F00701062903D0016841F00101016004
:1014F00000207047002C014000040040000800401C
:101500000168CA6822F00102CA6001680A6A41F2F1
:1015100011131A4207D10A6A9B101A4203D10A68B2
:1015200022F001020A60012180F83D10002070477E
:1015300070B5044690F83C000025012817D001261C
:1015400084F83C60022084F83D002068826822F024
:10155000770222F47F4282600868502838D00DDC80
:1015600020284FD005DC90B3102811D14AE002208A
:1015700070BD302846D040280AD13BE060282FD0EB
:1015800070280DD0B0F5805F03D0B0F5005F12D0A9
:10159000012584F83D60002084F83C00284670BD99
:1015A000CB68D1E90121206801F099F920688168B0
:1015B00041F0770109E0CB68D1E90121206801F011
:1015C0008EF92068816841F480418160E1E719E08B
:1015D000CA684968206801F037FA5021206806E09F
:1015E000CA684968206801F040FA6021206801F06B
:1015F00080F9CEE7CA684968206801F025FA4021E1
:101600002068F4E7226801461046F0E770472DE9AC
:10161000F04104460068C66805694FF00007A90755
:1016200013D5B10711D5F91E01610120207720687B
:1016300080698007204602D0FFF7E8FF04E000F051
:10164000A5F8204600F037F92777680716D5700708
:1016500014D521686FF0040008610220207720680B
:10166000806910F4407F204602D0FFF7CFFF04E0EE
:1016700000F08CF8204600F01EF92777280715D5D2
:10168000300713D521686FF0080008610420207727
:101690002068C0698007204602D0FFF7B7FF04E04A
:1016A00000F074F8204600F006F92777E80616D512
:1016B000F00614D521686FF010000861082020772B
:1016C0002068C06910F4407F204602D0FFF79EFFDB
:1016D00004E000F05BF8204600F0EDF82777E8071B
:1016E00008D0F00706D021686FF00100086120469D
:1016F00000F068F9280608D5300606D521686FF095
:10170000800008612046FFF741FE680608D5700694
:1017100006D521686FF040000861204600F072F99C
:10172000A8060AD5B00608D521686FF02000086128
:101730002046BDE8F041FFF72ABEBDE8F081000079
:1017400000B585B0002100910191029103910068DC
:101750000B49884212D10B48816941F0080181612F
:101760008069694600F0080004904FF48070009092
:101770000220019003900448FFF7F0F905B000BD86
:101780000008004000100240000C0140704770B596
:10179000044690F83C0000260D4601280FD0012099
:1017A00084F83C006AB1042A1DD0082A2FD00C2AE4
:1017B0003FD00126002084F83C00304670BD022056
:1017C00070BD206801F09EF82068816941F0080131
:1017D00081612068816921F004018161206881694B
:1017E0002A69114311E0206801F0B4F8206881698A
:1017F00041F4006181612068816921F48061816127
:10180000206881692A6941EA02218161D2E7206862
:1018100001F0CCF82068C16941F00801C16120687D
:10182000C16921F00401C1612068C1692A691143BD
:1018300011E0206801F0E6F82068C16941F4006118
:10184000C1612068C16921F48061C1612068C169FA
:101850002A6941EA0221C161ACE710B5040003D056
:1018600094F83D0010B107E0012010BD002084F87D
:101870003C00204600F01EF8022084F83D00211DA7
:10188000206800F0E3FF012084F8460084F83E0061
:1018900084F83F0084F8400084F8410084F8420056
:1018A00084F8430084F8440084F8450084F83D003F
:1018B000002010BD7047704710B50446022249B1A0
:1018C00004290ED0082913D094F84100012816D01D
:1018D000012010BD94F83E000128F9D184F83E2083
:1018E0000FE094F83F000128F2D184F83F2008E08F
:1018F00094F840000128EBD184F8402001E084F8FE
:1019000041200122206800F0DDFF0F492068884255
:1019100003D1426C42F4004242642068884208D0FD
:10192000B0F1804F05D00949884202D00849884269
:1019300004D1816801F00701062903D0016841F054
:1019400001010160002010BD002C01400004004096
:101950000008004030B504460D460068002200F043
:10196000B1FF174B41F2111120688A10984209D13A
:10197000036A0B4206D1036A134203D1436C23F47A
:10198000004343642068036A0B4206D1016A114296
:1019900003D1016821F00101016001203DB1042D56
:1019A00008D0082D09D084F84100002030BD84F80B
:1019B0003E00FAE784F83F00F7E784F84000F4E7D8
:1019C000002C014010B500680A49884211D10A492B
:1019D0000868401C086032280BDB002008600246C3
:1019E00080210648FFF7AFF9BDE810400448FFF733
:1019F00087BD10BD002C014004000020000C0140F8
:101A0000AC0400207047704710B504460068406978
:101A100094F84110C0F3C010212911D180B1206881
:101A2000143050E8001F21F0800140E80012002A25
:101A3000F5D1A06B08B1FEF7B0FE204601F0CDF85D
:101A40002068406994F84210C0F38010222911D117
:101A500080B12068143050E8001F21F0400140E8B8
:101A60000012002AF5D1E06B08B1FEF796FE204681
:101A700001F08CF8002010BD70470000F8B5016837
:101A800004460868CA684B6910F00F0F4FF0000554
:101A90005AD003F0010602F49077374365D0C107AE
:101AA00005D0D10503D5616C41F0010161644107A6
:101AB00005D5D90703D0616C41F00201616481074B
:101AC00005D5D90703D0616C41F0040161640107B9
:101AD00007D502F02001314303D0616C41F00801C9
:101AE0006164616C00293BD0800604D5900602D564
:101AF000204601F080F820684069616CC0F38010D6
:101B000001F00801014320462BD001F03FF8206886
:101B10004069400621D52068143050E8001F21F0AC
:101B2000400140E80012002AF5D1E06BA8B16D49F0
:101B30004163E06BFEF754FE002811D0E06B416B6F
:101B400001B0BDE8F040084783060ED593060CD5DA
:101B50002046BDE8F84001F04EB82046FFF78CFF64
:101B6000F8BDFFF789FF6564F8BD266B2023012EC1
:101B70007CD1C6067AD5D60678D508684868009024
:101B800048694FF00206400640D5E16B086840689E
:101B90000004000CE8D0A28D8242E5D9E085886976
:101BA00020282DD020680C3050E8001F21F48071CF
:101BB00040E80012002AF5D12168143151E8000FE5
:101BC00020F0010041E80002002AF5D1206814301D
:101BD00050E8001F21F0400140E80012002AF5D132
:101BE00084F84230256320680C3050E8001F21F053
:101BF000100140E80012002AF5D1E06BFEF7CDFDA0
:101C00006663A08DE18D401A81B22AE0A08DE18D3E
:101C1000401A81B2E08D0028A6D00029A4D0226805
:101C20000C3252E8000F20F4907042E80007002FB9
:101C3000F5D12068143050E8002F22F0010240E86E
:101C40000027002FF5D184F84230256320680C303E
:101C500050E8002F22F0100240E80023002BF5D1BD
:101C600066632046FFF7CFFEF8BDFFE705062BD5DC
:101C7000150629D594F841002128F5D1A068B0F5C2
:101C8000805F01D12069B0B1206A411C21622168C6
:101C900000784860E08C401E0004000CE084E3D132
:101CA0002068C16821F08001C1602068C16841F0EE
:101CB0004001C160D8E7206A0088C0F3080048608E
:101CC000206A801C2062E5E74006CDD55006CBD5C2
:101CD000CA68204622F04002CA6084F8413000F011
:101CE0002AFAC1E78F2A000870B5040004D094F8DE
:101CF0004100002510B106E0012070BD84F840507D
:101D0000204600F023F8242084F841002068C168B0
:101D100021F40051C160204600F0CEFF2068016927
:101D200021F4904101612068416921F02A0141615B
:101D30002068C16841F40051C1606564202084F8C6
:101D4000410084F842006563002070BDF0B585B0A5
:101D500000240094019402940394054602684E48BE
:101D6000DFF830C1022103234C4E0715624525D10F
:101D7000826942F480428261826902F48042049264
:101D8000826942F0040282618069039300F00400DA
:101D900004900802CDE9000169463046FEF7DEFEF8
:101DA000CDE90074694630460294FEF7D7FE002262
:101DB00002212520FFF738F8252029E0DFF8E0C0D0
:101DC000624529D1C26942F40032C261C26902F49B
:101DD00000320492826942F00402826180690393B6
:101DE00000F0040004900420CDE90001694630466B
:101DF000FEF7B4FE0820CDE900046946304602949F
:101E0000FEF7ACFE002201212620FFF70DF8262068
:101E1000FEF7FCFF05B0F0BD224EB242FAD1C26916
:101E200042F48022C261C26902F480220492826973
:101E300042F0080282618069CDE9007100F008007B
:101E4000CDE90330184E69463046FEF787FEF014A0
:101E5000CDE90004694630460294FEF77FFE144E39
:101E60001248C6E900048020C6E90240346174616A
:101E7000B4613046F461FEF7A9FD08B1FEF78BFCB2
:101E8000EE630022114627207562FEF7CDFF272062
:101E9000BEE7000000380140001002400008014089
:101EA0000044004000480040000C01403000024067
:101EB000080A002090F84230202B01D00220704701
:101EC00021B11AB10023036300F052BF0120704713
:101ED00090F84230202B01D00220704721B11AB176
:101EE0000023036300F08CBF01207047F0B5044667
:101EF00000684C494C4D01269FB0884224D105F121
:101F00000C0108784A7883188878C978034403F06C
:101F10007F038B4212D102F07F0161F3DF10C2B266
:101F20002A7042A101A800F0F1FF0021082301AAB4
:101F30000846009600F0F0FB00F056FB3A490422F8
:101F40000C313F48FFF7C4FF3E492068884267D103
:101F50003B4C0C3C20782C285BD1A079617900EBBC
:101F60000120C7B26F702079E17800EB0120A870E2
:101F7000207AE17900EB0120FEF772F96860A07A1F
:101F8000617A00EB0120FEF76BF9A8603A462EA1BA
:101F900019A800F0BBFFAA782FA101A800F0B6FF96
:101FA0006868FEF762F9324C00222346FEF7E9F832
:101FB00002460B462FA109A800F0A8FFA868FEF76B
:101FC00054F900222346FEF7DCF802460B462CA10A
:101FD00011A800F09BFF082319AA0A2100200096EF
:101FE00000F09AFB082301AA14210020009600F0BB
:101FF00093FB082309AA1E210020009600F08CFB09
:10200000082311AA28210020009600F085FB00F08B
:10201000EBFA0B490C220C3901F15400FFF758FF81
:102020001FB0F0BD0038014008000020504D322E96
:10203000353A253364206D672F6D330D0A0000009B
:102040003009002000440040434F323A20253364D9
:102050002070706D00000000666F726D616C6465C9
:10206000687964653A25336475672F6D3300000025
:102070000000244074656D703A252E3266204300BE
:1020800068756D69646974793A252E326620524804
:102090000000000070472DE9F843044690F8410025
:1020A000984616460D46202802D00220BDE8F88347
:1020B00085B17EB100206064212084F84100FEF7E4
:1020C00047FEA6848146E684A0682027B0F5805F9D
:1020D00002D003E00120E9E7206910B12E46002577
:1020E0000EE000260CE08021204600F0A4FEA8B9F6
:1020F000C6B116F8010B21684860E08C401EE084F0
:10210000E08C4B464FF00002CDF800800028EAD169
:102110004FF04001204600F08EFE40B184F841703F
:102120000320C3E735F8020BC0F30800E3E784F8A7
:1021300041700020BAE77047FEE70000094808B583
:10214000416941F0010141614069002200F0010054
:10215000009011460D20FEF767FEBDE808400D20F7
:10216000FEF754BE001002402DE9F04786B000266D
:102170003A480096019602960396816941F0100153
:102180008161816901F010010491816941F02001B0
:102190008161816901F020010491816941F00401AC
:1021A0008161816901F004010491816941F00801B4
:1021B00081618069DFF8A88000F008004FF4604476
:1021C0000490012221464046FEF7BDFDDFF89490C1
:1021D000012203214846FEF7B6FDDFF88CA04FF43C
:1021E0002077012239465046FEF7ADFD00940124C8
:1021F0000325694640460194CDE90245FEF7AEFC51
:10220000CDE9005469464846CDE90245FEF7A6FCF3
:102210001020CDE900060220029069464846FEF7EC
:102220009DFC4FF4E04000901048CDE90104694660
:102230005046FEF793FCCDE9007469465046CDE95F
:102240000245FEF78BFC002203212820FEF7ECFD5F
:102250002820FEF7DBFD06B0BDE8F0870010024045
:102260000010014000080140000C01400000211056
:1022700010B586B000241848009401940294039489
:10228000049414490594016041F61F41C0E901140A
:1022900040F2E731C0E9031444618461FFF7ACF810
:1022A00008B1FEF778FA4FF48050009069460A486A
:1022B000FFF73EF908B1FEF76EFA049404A9064848
:1022C0000594FFF765F8002801D0FEF764FA06B020
:1022D00010BD0000002C0140AC04002010B58EB0F1
:1022E00000240794089409940A940B941C216846CE
:1022F0000C94FDF72EFF20481E49016041F61F4156
:10230000C0E9011440F2E731C0E903148021816182
:10231000FFF772F808B1FEF73EFA4FF480500790CD
:1023200007A91548FFF704F908B1FEF734FA124877
:10233000FFF793FA08B1FEF72EFA0B940BA90E489B
:102340000C94FFF725F808B1FEF725FA6020CDE9D7
:102350000004022002900822694604940648FFF710
:1023600016FA08B1FEF717FA0348FFF7E9F90EB0BD
:1023700010BD000000080040F40400200E4810B515
:102380000C4901604FF416514160002181600C221C
:10239000C160C0E904128161C161FFF7A5FC08B109
:1023A000FEF7F9F9BDE81040042204490248FFF79E
:1023B0008FBD0000003801403009002014000020CB
:1023C0000E4810B50C4901604FF4165141600021D0
:1023D00081600C22C160C0E904128161C161FFF714
:1023E00083FC08B1FEF7D7F904490C22BDE8104080
:1023F00054390248FFF76CBD0044004078090020C2
:102400000C4810B50A4901604FF4E13141600021E8
:1024100081600C22C160C0E904128161C161FFF7D3
:1024200063FC002803D0BDE81040FEF7B4B910BD2E
:1024300000480040C0090020FEE7FEE730B400215C
:10244000084B0A465FF0000003EBC004401CC0B21A
:1024500062548028F8D3491CC9B20829F2D330BC91
:1024600000F0C2B82C00002030B1012807D10021B3
:102470005FF0A70000F06EB90021A620FAE77047D0
:1024800010B558B1012810D10021C02000F062F928
:102490000021A020BDE8104000F05CB90021C82058
:1024A00000F058F90021A120F4E710BD30B5CC08A8
:1024B00001F0070301259D40EBB2064D05EBC00579
:1024C000C808285C0AB1184302E063EA0000C04370
:1024D000285530BD2C00002070B5424D4FF400440B
:1024E000002221462846FEF72EFCC820FEF7D4FA2B
:1024F000012221462846FEF726FC0021AE2000F0EE
:1025000029F90021084600F025F90021102000F0EB
:1025100021F90021402000F01DF90021812000F068
:1025200019F90021CF2000F015F90021A12000F0B9
:1025300011F90021C82000F00DF90021A62000F0BB
:1025400009F90021A82000F005F900213F2000F042
:1025500001F90021D32000F0FDF80021084600F029
:10256000F9F80021D52000F0F5F80021802000F0D6
:10257000F1F80021D92000F0EDF80021F12000F061
:10258000E9F80021DA2000F0E5F80021122000F03F
:10259000E1F80021DB2000F0DDF80021402000F010
:1025A000D9F80021202000F0D5F80021022000F009
:1025B000D1F800218D2000F0CDF80021142000F08A
:1025C000C9F80021A42000F0C5F80021A62000F0E1
:1025D000C1F8FFF733FFBDE870400021AF2000F0E5
:1025E000B9B800000008014070B5114E002400BFCA
:1025F00004F1B000C0B2002100F0ACF800210846A0
:1026000000F0A8F80021102000F0A4F85FF0000509
:1026100006EBC5000121005D00F09CF86D1CEDB2D9
:10262000802DF5D3641CE4B2082CE1D370BD00000A
:102630002C0000202DE9FC4F1C460E4682468B469E
:102640000190082B0DD0600700D0012000EBD400D2
:1026500061084843C0B28146203AD0B200900020C1
:102660004BE00620F7E7082C13D00C2C18D0102CC8
:102670001BD0182C44D10098234900EBC00000BFA8
:1026800001EB8001002711F80850E80712D00B9ADF
:1026900013E000981D4900EB400001EB4001F1E719
:1026A00000981B4900EB4000EAE71A49009801EB4B
:1026B0000011E7E70B9828B3002231465046FFF798
:1026C000F5FE761C7F1C6D08FFB2F6B2082FDCD336
:1026D0000AF1010000F0FF0A082C0AD00199AAEBC8
:1026E0000100B0EB540F04D10BF108008A4600F052
:1026F000FF0B08F101005E46C0B280464845B2D3E8
:10270000BDE8FC8F0122D8E714490008883C000886
:10271000B03E0008244300082DE9F8411E46154646
:1027200088460446079F0BE0334641462046009703
:10273000FFF780FF082E0AD004EB5600C4B26D1CD0
:102740002A78A2F120005E28EED9BDE8F881A41D08
:10275000E4B2F4E72DE9F0471D4C054609B101222A
:1027600000E0002201212046FEF7EDFA00220221BE
:10277000A0462046FEF7E7FA164F00244FF48049A2
:102780004FF40056002231463846FEF7DCFA2806A0
:1027900001D5012200E0002249463846FEF7D3FA6F
:1027A000012231463846FEF7CEFA6806641C050E53
:1027B000E4B2082CE6D30122022144464046FEF74B
:1027C000C2FA2046BDE8F04701221146FEF7BBBA27
:1027D000000801400010014070477047FEF7BEBA84
:1027E00030B58FB028216846FDF7B3FC14210AA844
:1027F000FDF7AFFC01210804CDE90010002402948C
:1028000002250491CDE907504FF4E0100990684685
:10281000FEF718FC08B172B6FEE70F20CDE90A05F5
:102820004FF48060CDE90C4002210AA80E94FEF717
:102830002DFB002801D072B6FEE70FB030BD704707
:102840000148FEF7E4BE0000AC040020F0B50268C9
:10285000194B1A4C1A4D4FF08047984205D0B84298
:1028600003D0A04201D0A84203D122F070064A68EA
:102870003243984205D0B84203D0A04201D0A842CA
:1028800003D122F44074CA6822434C6922F08002CA
:10289000224302608A68C2620A688262984201D159
:1028A00009690163012141610169C90703D0016917
:1028B00021F001010161F0BD002C01400004004045
:1028C0000008004010B501F01F030121046A99407F
:1028D0008C430462016A9A401143016210BD10B535
:1028E000846842EA032224F47F440A43224382603C
:1028F00010BD826822F070020A4342F00701816035
:102900007047000030B5036A026A22F001020262D9
:102910004268846924F073050C682C4323F0020597
:102920008B682B430A4DA8420BD123F00805CB68D6
:1029300022F440722B434D6923F0040315438A6946
:102940002A434260846149684163036230BD0000EC
:10295000002C014030B5026A036A23F010030362C1
:10296000436884690D6824F4E64444EA05248D68CC
:1029700022F0200242EA05120B4DA8420ED1CD688A
:1029800022F0800242EA05124D6923F4406343EAD3
:1029900085038D6922F0400243EA85034360846128
:1029A00049688163026230BD002C014030B5036A82
:1029B000026A22F4807202624268C46923F40073DE
:1029C00024F073050C682C438D6843EA05230C4DF5
:1029D000A8420ED1CD6823F4006343EA05234D6974
:1029E00022F4405242EA05128D6923F4806342EAE0
:1029F00005124260C4614968C163036230BD0000D2
:102A0000002C014030B5046A026A22F4805202624E
:102A10004268C3690D6823F4E64343EA05238D68E1
:102A200024F4005444EA0534064DA84204D14D690B
:102A300022F4804242EA85124260C361496801641F
:102A4000046230BD002C014010B5036A046A24F012
:102A500001040462846924F0F00444EA021423F0BF
:102A60000A020A438461026210BD10B5036A046A57
:102A700024F010040462846923F0A00324F4704459
:102A800044EA023243EA01118261016210BD10B5CD
:102A9000406A0021C185C184FEF7EEFF10BD70B50C
:102AA000446A2068406994F84110C0F3C0100025C2
:102AB000212904D118B1E584204600F08EF8206861
:102AC000406994F84210C0F38010222904D118B153
:102AD000E585204600F05AF8606C40F01000606414
:102AE0002046FEF7C9FF70BD10B50146406A09686F
:102AF00009684FF0000289062ED4C28501680C31A6
:102B000051E8003F23F4807341E80034002CF5D1F4
:102B10000168143151E8003F23F0010341E800341B
:102B2000002CF5D10168143151E8003F23F0400337
:102B300041E80034002CF5D1202180F84210016BCF
:102B4000012909D101680C3151E8003F23F010033D
:102B500041E80034002CF5D14263016B012902D019
:102B6000FFF7C4F910BD818DFEF74DFF10BD10B504
:102B7000406A01214163016B012902D0FFF78AFA03
:102B800010BD818D4908FEF73EFF10BD01680C3174
:102B900051E8002F22F4907241E80023002BF5D178
:102BA0000168143151E8002F22F0010241E80023AE
:102BB000002BF5D1016B012909D101680C3151E8D5
:102BC000002F22F0100241E80023002BF5D1202134
:102BD00080F8421000210163704701680C3151E810
:102BE000002F22F0C00241E80023002BF5D1202164
:102BF00080F84110704708B590F84210222901D0A2
:102C0000022008BD82684FF480539A4201D10169C5
:102C100021B1816A9A421BD04AB10AE00268816AF6
:102C20005268C2F308020A80816A891C08E00269BE
:102C300072B10268526802F07F020A70816A491C10
:102C40008162C18D491E0904090CC18503D01BE0B6
:102C500002685268F1E70168CA6822F02002CA607F
:102C60000168CA6822F48072CA6001684A6922F069
:102C700001024A61202180F8421000214163026B69
:102C8000012A03D0FFF732F9002008BD0163016873
:102C90000C3151E8002F22F0100241E80023002BF4
:102CA000F5D101680A68D20602D50A684968009120
:102CB000818DFEF7A8FEE7E770B50446006801695C
:102CC000E26821F44051114301612169A068084381
:102CD000616908432168CA6841F20C639A43024360
:102CE000CA6020684169A26921F4407111434161C1
:102CF0001E492068884202D1FEF76EF901E0FEF716
:102D00005BF900EBC00101EB0012606864218000F8
:102D1000B2FBF0F3B3FBF1F36FF018067343B2FBB1
:102D2000F0F5B2FBF0F605EB8305322303EB051556
:102D3000B5FBF1F5B6FBF1F605F0F00505EB061570
:102D4000B2FBF0F6B2FBF0F0B0FBF1F06FF018025E
:102D5000504306EB800003EB0010B0FBF1F021685C
:102D600000F00F002844886070BD0000003801406A
:102D700038B58162044682850020134660642222B1
:102D800084F84220E56B1B4AAA62E56B1A4AEA62A4
:102D9000E56B1A4A2A63E26B50630A462168E06BCE
:102DA000091DFDF741FE2068016840680090206918
:102DB00048B120680C3050E8001F41F4807140E8B1
:102DC0000012002AF5D12068143050E8001F41F0AD
:102DD000010140E80012002AF5D12068143050E8C3
:102DE000001F41F0400140E80012002AF5D1002008
:102DF00038BD0000E92A00086F2B00089F2A000850
:102E000081628285C28500214164222180F84210BE
:102E1000016921B10168CA6842F48072CA60016820
:102E20004A6942F001024A610068C16841F020012C
:102E3000C160002070472DE9F843984617460D46BB
:102E40000446089E24E0701C22D0FDF781FFA0EB11
:102E50000800B0421AD8CEB12068C168490717D51A
:102E6000802D15D0402D13D00168C94309070FD418
:102E700001680025406800902046FFF787FE082083
:102E8000606484F840500120BDE8F8830320FBE72C
:102E90002068006835EA000004D00020B842D2D093
:102EA0000020F1E70120F9E70148FEF7E7BD000047
:102EB000300900200148FEF7E1BD0000780900203C
:102EC0000D4808B500680168C943C9060FD40168F8
:102ED000406800900848FEF797FD08480068406881
:102EE0000749C0F57A700870064901200870BDE8EE
:102EF00008400148FEF7C2BDC0090020080A0020B2
:102F00001800002019000020FEE700000FB4084B55
:102F100010B504A902AA039800F0DEF8044602A93D
:102F2000002000F070FC204610BC5DF814FB00008F
:102F3000073800080907090E002804DB00F1E0202B
:102F400080F80014704700F00F0000F1E02080F8D6
:102F5000141D704702E008C8121F08C1002AFAD1E8
:102F600070477047002001E001C1121F002AFBD109
:102F7000704700002DE9FF5FDDE90220010DDDF85B
:102F800038B0024318D044F61050A1F2FF3141434B
:102F90000D140F98012820D0A5EB0B00401C5FEA10
:102FA000000A4FF00004474EDFF81C91A04650463F
:102FB00016D5CAF1000728E00F98012443A2012882
:102FC00008D0002100980F9BC0E90021C0E902430E
:102FD000BDE8FF9F6FEA0B01F4E7CBF10000DEE7ED
:102FE000074612E0F80707D02246334640464946D6
:102FF000FDF7D0FA804689462246334610461946E8
:10300000FDF7C8FA04460E467F10002FEAD1DDE92D
:103010000201BAF1000F42464B4602DAFDF7BAFA56
:1030200001E0FDF7AEF804460E460022284BFDF7FE
:103030003BFB03D84FF0FF30014607E00022254B51
:1030400020463146FDF7FFF9FDF716FB102409E095
:10305000002C0ADB0A220023FDF730F9019B3032F5
:103060001A55641E50EA0102F2D1641C019AC4F19F
:10307000110314440F9A012A03D0012208430DD1F1
:103080000AE0084304D000204FF0110B0F9080E7B6
:10309000A3EB0B056D1E0DE05B4504DD4FF0000258
:1030A00005F1010504E003DA4FF00002A5F1010586
:1030B000002AECD000980F99C0E90231C0E9004520
:1030C00086E70000000024400000F03F30000000D0
:1030D0000000F0430000E03F2DE9FF4F95B09B4614
:1030E0008946064600250FE2252877D10024274689
:1030F000F84A0121059400E0044316F8013F203B03
:1031000001FA03F01042F7D130782A2811D06FF07D
:103110002F033078A0F13002092A16D8059A44F01E
:10312000020402EB820203EB42021044761C05907B
:10313000EFE759F8042B0592002A03DA504244F4D1
:103140000054059044F00204761C30782E2816D1E5
:1031500016F8010F44F004042A280DD06FF02F0256
:103160003078A0F13003092B09D807EB870302EB75
:103170004303C718761CF3E759F8047B761C3078B4
:103180006C280FD006DC4C2817D068280DD06A2890
:1031900014D104E0742810D07A280FD10DE044F443
:1031A00000140AE044F4801401E044F440147278FE
:1031B000824202D104F58014761C761C3078662891
:1031C0000BD013DC582877D009DC002875D04528AF
:1031D000F6D04628F4D047281AD19DE118E063289C
:1031E00035D0642879D0652812D195E1702873D044
:1031F00008DC6728F1D069286FD06E280DD06F28C1
:1032000006D1B5E073282CD0752875D0782874D0F5
:103210005A46179990476D1C75E1C4F30250022875
:1032200009D003280DD0D9F8001004280DD00D6066
:1032300009F1040967E1D9F80010EA17C1E9005261
:10324000F6E7D9F800100D80F2E70D70F0E719F8F5
:10325000041B8DF8001000208DF80100EA460120C3
:1032600003E059F804AB4FF0FF3061074FF0000165
:1032700002D40DE008F101018846B9420FDA804519
:10328000F8DB1AF808100029F4D108E008F1010170
:1032900088468142FADB1AF808100029F6D1059811
:1032A0005B46A0EB080721463846179A00F094FACF
:1032B000284400EB080507E04DE029E10DE01AF88D
:1032C000010B5A4617999047B8F10108F7D25B46AF
:1032D00021463846179A13E142E00A220092C4F3CD
:1032E00002524FF0000A022A08D059F804CB032AF0
:1032F0004FEAEC710AD00DE029E02AE009F107015C
:1033000021F00702F2E802C1914609E00FFA8CFCB5
:103310004FEAEC71042A03D14FFA8CFC4FEAEC71AE
:10332000002907DA0A460021DCF1000C61EB0201FA
:103330002D2202E0220504D52B228DF80420012243
:1033400003E0E20701D02022F7E7904659E00A2186
:1033500002E010220DE010214FF0000A00910BE076
:1033600010224FF0000A44F004040827009203E002
:1033700008224FF0000A0092C4F30252022A05D03C
:1033800059F804CB0021032A08D009E009F107010C
:1033900021F00702F2E802C1914605E01FFA8CFC19
:1033A000042A01D10CF0FF0C4FF00008220728D5A9
:1033B000702806D0009B83F0100353EA0A0305D05F
:1033C0000EE040228DF80420012208E05CEA0102B0
:1033D00006D030228DF804208DF805000222904698
:1033E000009B83F0080353EA0A030AD15CEA010256
:1033F00001D1620705D530228DF804204FF0010875
:103400007F1E582804D034A003900EA802900DE02F
:1034100036A0F9E753466046009AFCF74FFF844612
:103420000398825C0298401E029002705CEA0100E0
:10343000F0D1029806A9081A00F1200A600702D507
:1034400024F4803400E00127574502DDA7EB0A0091
:1034500000E0002000EB0A01009005984144401A6A
:103460000590E00306D45B462146179A059800F0C4
:10347000B3F90544002706E001A85A46C05D179934
:1034800090476D1C7F1C4745F6DBE0030CD55B467F
:103490002146179A059800F09FF9054404E0302072
:1034A0005A46179990476D1C0099481E00900029B4
:1034B000F5DC08E0029802995A460078491C02910E
:1034C000179990476D1CBAF10001AAF1010AF1DCCD
:1034D00065E10000092801003031323334353637D8
:1034E0003839616263646566000000003031323350
:1034F00034353637383941424344454600000000F0
:1035000000F058F90544761C307800287FF4ECADC3
:1035100019B02846BDE8F08F620700D4062709F1EC
:10352000070222F0070CFCE80223E14603F0004802
:103530005FEA080C02D00FF2702C0DE05FEA045C29
:1035400002D50FF2682C07E05FEAC47C02D00FF2CC
:10355000602C01E0AFF2700C4FF0FF3823F0004315
:10356000CDF850C065280CD006DC452809D0462887
:103570001DD047283DD13DE0662818D067287ED170
:1035800038E00021112F01DB112000E0781CCDE98B
:10359000000106A90EA8FFF7EDFCDDE90F010E9A68
:1035A00003910021009207F1010A04914DE04FF0D0
:1035B00000400097CDE9011006A90EA8FFF7DAFC3C
:1035C000DDE90F0203920E9B11990022DDF80CA099
:1035D0000093049211B9791C00EB010AB7EB0A00C1
:1035E00004D4C0F1FF3007F1010A0490AAEB0700F0
:1035F000019044E0012F00DA01270021112F01DDA5
:10360000112000E03846CDE9000106A90EA8FFF719
:10361000B1FCDDE90F010E9A0391002104910092A3
:10362000BA4621070CD40399514500DA8A46BAF10B
:10363000010F05DD009AAAF10101515C302908D083
:10364000B84202DA10F1040F06DA0121CDE90110C7
:1036500015E0AAF10101E9E7002805DC049901441D
:103660000491AAEB000102E0411C514500DD8A46AD
:103670000499401A401C01904FF00040029020072E
:1036800004D40198504501DBCDF8048000208DF86A
:103690004F0002980DF14F07B0F1004F25D02B20BD
:1036A0000E9002984FF0020800280CDA4042029077
:1036B0002D200E9007E00A210298FCF7E9FD303139
:1036C000029007F8011DB8F10001A8F10108F2DC31
:1036D00002980028EFD1791E0E980870307800F01B
:1036E000200040F0450007F8020D12A8C01B00F1B1
:1036F00007081498007800B1012000EB0A01019836
:1037000001EBE07105984144401A401E0590E0032A
:1037100006D45B462146179A059800F05DF80544EB
:103720001498007818B15A46179990476D1CE00319
:1037300024D55B462146179A059800F04DF80544BC
:103740001CE00498002807DBDDE90301884203DD63
:103750000098405C179901E0179930205A4690472D
:10376000049805F10105401C04900198401E019049
:1037700004D12E205A46179990476D1CBAF10001CA
:10378000AAF1010ADDDC05E017F8010B5A4617998A
:1037900090476D1CB8F10001A8F10108F4DC5B460C
:1037A0002146179A0598ABE62D0000002B0000007B
:1037B000200000002DE9F041044600251E46174672
:1037C000880404D405E039462020B0476D1C641EEF
:1037D000F9D52846BDE8F0812DE9F04104460025E1
:1037E0001E469046C80301D5302700E020278804F4
:1037F00004D505E041463846B0476D1C641EF9D536
:103800002846BDE8F0810A68531C0B6010707047B1
:103810002DE9F05F38A10FF2EC080FF2FC0A0FF26D
:103820000C19564846A74BA602784FA5002A61D02E
:103830000024047009225248FCF796FC10B9514943
:1038400001200870112241464D48FCF78DFCDFF83D
:1038500038B14FF4007820B9002241465846FDF7B0
:1038600072FA122251464648FCF77EFC20B901222A
:1038700041465846FDF767FA112249464048FCF791
:1038800073FC20B9002280215846FDF75CFA122211
:1038900039463B48FCF768FC20B901228021584694
:1038A000FDF751FA102231463548FCF75DFC40B96E
:1038B00008213648FEF700F834494FF4967009683D
:1038C000C863112229462E48FCF74EFC18B908217E
:1038D0002E48FEF73FF82E4804704FF47A742146C4
:1038E0002748FCF736FC2246BDE8F05F244929480A
:1038F000FEF7E0BABDE8F09F302C434F4E4E4543F3
:10390000540000000D0A2B4950442C302C363A6CE0
:103910006179316F6E0000000D0A2B4950442C3044
:103920002C373A6C6179316F666600000D0A2B49BD
:1039300050442C302C363A6C6179326F6E000000A6
:103940000D0A2B4950442C302C373A6C6179326F78
:10395000666600000D0A2B4950442C302C353A661F
:10396000616E6F6E000000000D0A2B4950442C3030
:103970002C363A66616E6F66660000001900002002
:103980003C05002000000020000C0140F404002051
:1039900018000020C00900209EB000242546FDF735
:1039A000E5F9FEF71DFFFEF7DFFBFEF7C7FBFEF7AD
:1039B00095FCFEF7E3FCFEF703FDFEF759FCFEF76E
:1039C0001FFD00F0E7F8FEF787FD0020FEF74CFD35
:1039D0000020FEF755FDFEF731FDDFF8BCA02F4FAC
:1039E000DFF8BC90DFF8BCB0FFF712FF10212E48C3
:1039F000FDF7A4F9012804D1012280212B48FDF70D
:103A0000A2F93878C82807D899F80000962803D872
:103A10009BF8000064280ED908212548FDF74CFFCB
:103A200023494FF496700968C86300224FF400716F
:103A30001E48FDF788F9641C5445D5D1002495F043
:103A400001051DD01B480068FCF70FFC00221A4B33
:103A5000FCF797FB0646194888460068FCF705FC0A
:103A60000022154BFCF78DFB0A468DE8450199F8BD
:103A700000303A7812A104A8FFF748FA3C2106E08A
:103A80009BF800201EA104A8FFF740FA142104A807
:103A900000F040F8A8E7000080841E000900002024
:103AA0000A0000200800002000080140000C01402E
:103AB000F404002010000020000024400C0000202E
:103AC000434F323A25336470706D20666F726D61BA
:103AD0006C6465687964653A25336475672F6D3366
:103AE0002074656D703A252E66432068756D696493
:103AF0006974793A252E326652480D0A000000009A
:103B0000504D322E353A253364206D672F6D330DBD
:103B10000A00000070B500259AB00C4606460A2936
:103B200000DA0125A4F10B00592800D20225124821
:103B3000007800281ED034216846FCF70AFB3421A7
:103B40000DA8FCF706FB22460CA16846FFF7DEF93C
:103B500005F10F024FF6FF752B4669460C48FEF73C
:103B60009AFA6420FCF798FFA2B22B463146084827
:103B7000FEF791FA1AB070BD0000002041542B43AB
:103B8000495053454E443D302C25640D0A00000039
:103B9000C009002070B54FF6FF752B460D221DA100
:103BA0002048FEF778FA4FF47A742046FCF774FF49
:103BB0002B4626221CA11B48FEF76DFA2046FCF777
:103BC0006BFF2B46082222A11648FEF764FAA000DC
:103BD000FCF762FF2B460D2220A11248FEF75BFA8C
:103BE0002046FCF759FF2B46152220A10D48FEF771
:103BF00052FA2046FCF750FF0A480068C16841F0BD
:103C00001001C16022461F490648FEF753F9012002
:103C100070BD000041542B43574D4F44453D320D7C
:103C20000A000000C009002041542B435753415063
:103C30003D2245535038323636222C223031323331
:103C4000343536373839222C31312C300D0A00000A
:103C500041542B5253540D0A0000000041542B4391
:103C600049504D55583D310D0A00000041542B4339
:103C700049505345525645523D312C353030300D68
:103C80000A0000003C0500200000000000000000C9
:103C9000002F000000000700070000147F147F14AD
:103CA00000242A7F2A120062640813230036495533
:103CB000225000000503000000001C22410000000B
:103CC00041221C000014083E08140008083E0808A1
:103CD000000000A0600000080808080800006060FC
:103CE0000000002010080402003E5149453E00003B
:103CF000427F4000004261514946002141454B311D
:103D0000001814127F10002745454539003C4A49E8
:103D1000493000017109050300364949493600065A
:103D20004949291E000036360000000056360000C2
:103D3000000814224100001414141414000041223D
:103D4000140800020151090600324959513E007C15
:103D50001211127C007F49494936003E41414122FF
:103D6000007F4141221C007F49494941007F0909E8
:103D70000901003E4149497A007F0808087F000098
:103D8000417F4100002040413F01007F0814224153
:103D9000007F40404040007F020C027F007F04080B
:103DA000107F003E4141413E007F09090906003E67
:103DB0004151215E007F0919294600464949493190
:103DC0000001017F0101003F4040403F001F2040B3
:103DD000201F003F4038403F006314081463000771
:103DE0000870080700615149454300007F414100C8
:103DF00000552A552A55000041417F000004020168
:103E00000204004040404040000001020400002045
:103E100054545478007F4844443800384444442083
:103E200000384444487F00385454541800087E0930
:103E300001020018A4A4A47C007F080404780000F8
:103E4000447D4000004080847D00007F10284400B5
:103E50000000417F4000007C04180478007C0804C6
:103E6000047800384444443800FC24242418001802
:103E7000242418FC007C08040408004854545420EE
:103E800000043F444020003C4040207C001C204077
:103E9000201C003C4030403C004428102844001CBA
:103EA000A0A0A07C004464544C44141414141414B2
:103EB0000000000000000000000000000000FC0006
:103EC0000000000002000000000C020C02000000D4
:103ED0000000000090D0BCD0BC90000300030000A4
:103EE0001824FE448C000302070201001824D8B0F5
:103EF0004C80000300010201C038E438E0000102F8
:103F0000020102020806000000000000000000009C
:103F1000000000F80402000000010204000204F89E
:103F200000000004020100009060F86090000000B2
:103F3000010000002020FC20200000000100000003
:103F400000000000000008060000000020202020E3
:103F5000200000000000000000000000000000023F
:103F6000000000000080601C02000403000000004C
:103F7000F8040404F8000102020201000008FC0039
:103F80000000000203020000188444241800030209
:103F90000202020008042424D800010202020100E7
:103FA00040B088FC80000000000302003C24242470
:103FB000C400010202020100F824242CC000010206
:103FC000020201000C04E41C0400000003000000D5
:103FD000D8242424D80001020202010038444444B9
:103FE000F8000003020201000000100000000000C1
:103FF0000200000000002000000000000600000099
:10400000002050880402000000000102909090906F
:104010009000000000000000000204885020000210
:10402000010000001804C424180000000200000071
:10403000F804E494F80001020202020000E09CF09F
:10404000800002030000030204FC2424D8000203C1
:1040500002020100F80404040C0001020202010043
:1040600004FC0404F80002030202010004FC2474AE
:104070000C0002030202030004FC24740C0002037F
:1040800002000000F0080444CC40000102020100DC
:1040900004FC2020FC040203000003020404FC04CE
:1040A0000400020203020200000404FC04040604EB
:1040B0000403000004FC24D00C04020302000302E9
:1040C00004FC04000000020302020203FC3CC03CAA
:1040D000FC0003000300030004FC30C4FC040203E2
:1040E00002000300F8040404F800010202020100C7
:1040F00004FC24241800020302000000F884840455
:10410000F80001020207050004FC24649800020381
:1041100002000302182424448C000302020201005E
:104120000C04FC040C0000020302000004FC00006C
:10413000FC04000102020100047C80E01C04000079
:10414000030000001CE03CE01C0000030003000032
:10415000049C609C0400020300030200041CE01C99
:1041600004000002030200000C84641C040002032B
:10417000020203000000FE02020000000704040027
:10418000000E30C00000000000010200000202FE2C
:104190000000000404070000000402040000000006
:1041A00000000000000000000000080808080808DF
:1041B0000000020000000000000000000040A0A07D
:1041C000C00000010202030204FC2020C000000322
:1041D0000202010000C02020600000010202020073
:1041E00000C02024FC0000010202030200C0A0A0C5
:1041F000C0000001020202000020F8242404000292
:10420000030202000040A0A0602000070A0A0A047E
:1042100004FC2020C0000203020003020020E4008E
:104220000000000203020000000020E40000080873
:104230000807000004FC80E02020020302000302C3
:104240000404FC000000020203020200E020E0205F
:10425000C00003000300030020E02020C000020390
:104260000200030200C02020C00000010202010081
:1042700020E02020C000080F0A02010000C020201A
:10428000E0000001020A0F0820E0402020000203A5
:10429000020000000060A0A0200000020202030053
:1042A0000020F820000000000102020020E00020B1
:1042B000E00000010202030220E0208060200000F4
:1042C000030100006080E080600000030003000044
:1042D00020608060200002030003020020E02080B4
:1042E00060200808070100000020A06020000002F4
:1042F00003020200000020DE0200000000070400AC
:10430000000000FF00000000000F00000002DE209F
:104310000000000407000000020102040402000083
:10432000000000000000000000000000000000008D
:1043300000000000000000F8000000000000003352
:104340003000000000100C06100C060000000000F9
:104350000000000040C07840C0784000043F0404E2
:104360003F040400007088FC08300000001820FFA3
:10437000211E0000F008F000E018000000211C03DE
:104380001E211E0000F00888700000001E2123245A
:104390001927211010160E00000000000000000078
:1043A00000000000000000E0180402000000000708
:1043B0001820400000020418E0000000004020180F
:1043C00007000000404080F0804040000202010FE2
:1043D00001020200000000F0000000000101011FC6
:1043E00001010100000000000000000080B070002A
:1043F00000000000000000000000000000010101BA
:104400000101010100000000000000000030300048
:104410000000000000000000806018040060180622
:104420000100000000E010080810E000000F10205C
:1044300020100F00001010F8000000000020203FA6
:104440002020000000700808088870000030282430
:1044500022213000003008888848300000182020D1
:1044600020110E000000C02010F8000000070424F6
:10447000243F240000F8088888080800001921203B
:1044800020110E0000E0108888180000000F112095
:1044900020110E0000380808C83808000000003F4E
:1044A000000000000070880808887000001C2221AD
:1044B00021221C0000E010080810E000000031225A
:1044C00022110F00000000C0C000000000000030FA
:1044D000300000000000008000000000000080604C
:1044E00000000000000080402010080000010204CD
:1044F00008102000404040404040400004040404B4
:10450000040404000008102040800000002010086F
:1045100004020100007048080808F00000000030A4
:1045200036010000C030C828E810E0000718272432
:1045300023140B000000C038E0000000203C2302E0
:104540000227382008F8888888700000203F202043
:1045500020110E00C0300808080838000718202075
:104560002010080008F808080810E000203F20206C
:1045700020100F0008F88888E8081000203F20204D
:104580002320180008F88888E8081000203F200041
:1045900003000000C0300808083800000718202079
:1045A000221E020008F808000008F808203F210138
:1045B00001213F20000808F8080800000020203FE3
:1045C0002020000000000808F8080800C080808053
:1045D0007F00000008F888C028180800203F20014C
:1045E0002638200008F8080000000000203F2020A6
:1045F0002020300008F8F800F8F80800203F003FBD
:10460000003F200008F830C00008F808203F2000D4
:1046100007183F00E01008080810E0000F102020E5
:1046200020100F0008F808080808F000203F2101BA
:1046300001010000E01008080810E0000F18242411
:1046400038504F0008F8888888887000203F200084
:10465000030C30200070880808083800003820213A
:1046600021221C00180808F8080818000000203F44
:104670002000000008F808000008F808001F2020AB
:1046800020201F000878880000C83808000007387C
:104690000E010000F80800F80008F800033C0700CD
:1046A000073C0300081868808068180820302C0335
:1046B000032C30200838C800C83808000000203F0C
:1046C0002000000010080808C838080020382621FB
:1046D00020201800000000FE020202000000007FFF
:1046E00040404000000C30C000000000000000010D
:1046F0000638C00000020202FE00000000404040F8
:104700007F0000000000040202020400000000001C
:104710000000000000000000000000008080808099
:104720008080808000020204000000000000000081
:10473000000000000000808080800000001924221A
:1047400022223F2008F8008080000000003F112056
:1047500020110E000000008080800000000E11205B
:1047600020201100000000808088F800000E112039
:1047700020103F200000808080800000001F222247
:1047800022221300008080F0888888180020203FB3
:10479000202000000000808080808000006B9494C6
:1047A0009493600008F8008080800000203F210082
:1047B00000203F2000809898000000000020203F4B
:1047C00020200000000000809898000000C0808039
:1047D000807F000008F8000080808000203F2402D5
:1047E0002D302000000808F8000000000020203FC5
:1047F000202000008080808080808000203F20007A
:104800003F20003F8080008080800000203F21000A
:1048100000203F200000808080800000001F2020BA
:1048200020201F00808000808000000080FFA120E9
:1048300020110E000000008080808000000E1120FA
:1048400020A0FF80808080008080800020203F2189
:10485000200001000000808080808000003324243C
:1048600024241900008080E0808000000000001FE8
:10487000202000008080000000808000001F202099
:1048800020103F20808080000080808000010E305A
:104890000806010080800080008080800F300C03BB
:1048A0000C300F0000808000808080000020312EBE
:1048B0000E312000808080000080808080818E709A
:1048C0001806010000808080808080000021302C4C
:1048D0002221300000000000807C02020000000065
:1048E000003F404000000000FF000000000000000A
:1048F000FF0000000002027C800000000040403FFA
:104900000000000000060101020204040000000093
:104910000000000000000000000000000000000097
:104920000000000000000000000000000000000087
:1049300000000000000000000000000000F0F0F0A7
:10494000000000000000000000017F0100000000E6
:1049500000000000001C1C1C000000000000806023
:10496000301C8C60301C0C000000000000000000B7
:104970000000000000000000000000000000000037
:10498000000000E00000000000E000000086E69F5C
:1049900086868686E69F860000011F0101010101CF
:1049A0001F010100000080C06020F820E0C000006E
:1049B000000003070C18FF70E18100000000070FE2
:1049C00010107F100F070000806020608000000042
:1049D000E02000000F3020309F70DC371030C00026
:1049E0000000100E03000718101807000000C02078
:1049F00020E0C0000000000080E01F38E88703C40A
:104A00003C040000070F1810100B070D10100800D1
:104A100000808C4C38000000000000000000000006
:104A20000000000000000000000000000000000086
:104A30000000000000000000000080E030080400DA
:104A40000000000000FEFF01000000000000000068
:104A50000000030F1820400000040830E080000030
:104A6000000000000000000001FFFE000000000048
:104A7000004020180F0300000000000000000000AC
:104A80000000C00000000000004266663C18FF18ED
:104A90003C666642000000000000030000000000C9
:104AA0000000000000008000000000000010101056
:104AB0001010FF1010101010000000000000030084
:104AC00000000000000000000000000000000000E6
:104AD00000000000000000000000000000808C4C7E
:104AE000380000000000000000000000000000008E
:104AF0000000000000101010101010101010100016
:104B000000000000000000000000000000000000A5
:104B10000000000000000000000000000000000095
:104B20000000000000001C1C1C0000000000000031
:104B30000000000000000000E0380C000000000051
:104B400080701C03000000000060380E01000000AF
:104B500000000000000080C060202060C0800000D5
:104B600000FEFF010000000001FFFE000001070E33
:104B7000181010180E0701000000808080C0E000AF
:104B8000000000000000000000FFFF000000000027
:104B900000001010101F1F10101000000080402097
:104BA00020202060C08000000003030080402038E7
:104BB0001F070000001C1A1918181818181F0000E9
:104BC0000080C020202060C080000000000303009F
:104BD0001010182FE780000000070F101010101899
:104BE0000F070000000000000000C0E0F00000001F
:104BF00000C0B088868180FFFF8080000000000038
:104C00000010101F1F1010000000E0606060606066
:104C10006060000000003F1008080818F0E0000085
:104C200000070B101010101C0F030000000080C0C4
:104C300040202020E0C0000000FCFF2110080808F0
:104C400018F0E0000001070C18101010080F030006
:104C50000000C0E06060606060E060000000030091
:104C60000000E0180700000000000000001F1F0007
:104C7000000000000080C0602020202060C0800074
:104C80000087EF2C1818303068CF830000070F081A
:104C900010101010180F07000000C0C020202020A6
:104CA000C0800000001F3F604040402010FFFE0019
:104CB00000000C1C101010080F0300000000000082
:104CC000000000000000000000000000000E0E0EBA
:104CD0000000000000000000001C1C1C0000000080
:104CE00000000000000000000000000000000000C4
:104CF000000C0C000000000000000000005838000C
:104D000000000000000000000000008040201000B3
:104D10000000102844820100000000000000000094
:104D20000000010204081000000000000000000064
:104D3000000000000084848484848484848484004B
:104D40000000000000000000000000000000102033
:104D50004080000000000000000000000000018210
:104D600044281000000010080402010000000000A8
:104D700000C020201010101030E0C000000303001D
:104D800000F010080C070300000000001C1C1C00B1
:104D900000000000000000C0406020202040C00053
:104DA00000FCFF01F00E03C1FE03807F0001070E2F
:104DB00008111110110904020000000080E0E00059
:104DC000000000000000807C4340477FF880000026
:104DD00010181F1000000000131F1C1020E0E0201E
:104DE00020202060C080000000FFFF10101010186D
:104DF0002FE78000101F1F1010101010180F070051
:104E0000000080C0402020202060E00000FCFF0166
:104E100000000000000001000001070E1810101033
:104E20000804030020E0E02020202040C080000093
:104E300000FFFF000000000001FFFE00101F1F1018
:104E4000101018080E07010020E0E020202020208C
:104E50002060800000FFFF101010107C0000000098
:104E6000101F1F10101010101018060020E0E02076
:104E7000202020206060800000FFFF101010107CB8
:104E800000000100101F1F100000000000000000C3
:104E9000000080C06020202040E0000000FCFF01F6
:104EA00000004040C0C140400001070E1810101023
:104EB0000F0F000020E0E0200000000020E0E020D4
:104EC00000FFFF101010101010FFFF00101F1F1028
:104ED00000000000101F1F100000202020E0E02034
:104EE000202000000000000000FFFF000000000084
:104EF00000001010101F1F10101000000000000014
:104F0000202020E0E020202000000000000000FF22
:104F1000FF0000000060E0808080C07F3F00000054
:104F200020E0E020000020A06020200000FFFF30F3
:104F3000187CE3C000000000101F1F1000000113C8
:104F40001F1C181020E0E0200000000000000000FE
:104F500000FFFF000000000000000000101F1F10F5
:104F6000101010101018060020E0E0E00000000013
:104F7000E0E0E02000FF013FFEC0E01E01FFFF0077
:104F8000101F1000031F0300101F1F1020E0E0C0BF
:104F9000000000000020E02000FF0003071C78E074
:104FA0008000FF00101F100000000000030F1F0012
:104FB000000080C060202060C080000000FEFF0173
:104FC0000000000000FFFE000001070E181010187E
:104FD0000C07010020E0E0202020202060C080009D
:104FE00000FFFF2020202020301F0F00101F1F1067
:104FF0000000000000000000000080C06020206071
:10500000C080000000FEFF010000000000FFFE0065
:105010000001070E1111133C7C67210020E0E02005
:105020002020202060C0800000FFFF101030F0D052
:10503000080F0700101F1F10000000030F1C1010A6
:105040000080C060202020204040E00000070F0CBE
:105050001818303060E08100001F0C08101010108C
:10506000180F07008060202020E0E02020206080D2
:105070000100000000FFFF00000000010000000030
:10508000101F1F100000000020E0E02000000000C2
:105090000020E02000FFFF00000000000000FF00F3
:1050A00000070F1810101010100807002060E0E033
:1050B0002000000020E060200000077FF8800080D2
:1050C0007C03000000000000071F1C070000000018
:1050D00020E0E02000E0E0200020E0200007FFF8D2
:1050E000E01FFFFCE01F00000000031F0300011F82
:1050F00003000000002060E0A0000020E06020002D
:10510000000000038F7CF8C6010000000010181E8C
:10511000130001171F1810002060E0E020000000BD
:1051200020E06020000001073EF8E01807000000C2
:1051300000000010101F1F101000000000806020F1
:10514000202020A0E0E0200000000000C0F03E0F82
:105150000300000000101C1F17101010101806008C
:105160000000000000FC040404040400000000002F
:1051700000FF00000000000000000000007F404031
:1051800040404000000010E000000000000000006F
:1051900000000000031C6080000000000000000010
:1051A000000000030C70800000000404040404FCF0
:1051B0000000000000000000000000FF00000000F0
:1051C000000040404040407F000000000000001010
:1051D000080C040C08100000000000000000000093
:1051E00000000000000000000000000000000000BF
:1051F00000000000000000000000000000000000AF
:10520000000000000000000080808080808080809E
:105210008080808000000004040808000000000076
:10522000000000000000000000000000000000007E
:10523000000000000000000000000000000000006E
:1052400000000000000098D844642424FCF800000A
:10525000000F1F18101010081F1F10180020E0F07A
:1052600000000000000000000000FFFF1808040418
:105270000CF8F00000001F0F18101010180F03009A
:1052800000000000000000000000000000E0F8182E
:105290000404043C3800000000030F0C1010101030
:1052A000080600000000000000000020E0F0000000
:1052B00000E0F81C04040408FFFF000000030F18BE
:1052C000101010081F0F0800000000000000000070
:1052D000000000000000E0F8484444444C787000AE
:1052E0000000030F0C18101010080400000000004C
:1052F00080C0602020E0C00000040404FFFF04041C
:1053000004040000000010101F1F10101000000007
:10531000000000000000000000000000000070F825
:105320008C04048CF874040C007076CF8D8D8D89FC
:10533000C87870000020E0F00000000000000000CD
:105340000000FFFF08040404FCF8000000101F1F09
:10535000100000101F1F100000000000006060001F
:10536000000000000000040404FCFC000000000039
:1053700000001010101F1F1010100000000000008F
:10538000000000606000000000000000040404FC55
:10539000FC0000000000C0C08080C07F3F00000013
:1053A0000020E0F000000000000000000000FFFF0F
:1053B00080C0F41C0404000000101F1F1100031F14
:1053C0001C1010000000202020E0F0000000000071
:1053D0000000000000FFFF000000000000001010AF
:1053E000101F1F101010000000000000000000003F
:1053F0000000000004FCFC0804FCFC0804FCFC00A9
:10540000101F1F10001F1F10001F1F1000000000A2
:1054100000000000000000000004FCFC0808040478
:10542000FCF8000000101F1F100000101F1F1000CC
:1054300000000000000000000000000000E0F01884
:105440000C04040C18F0E00000030F0C10101010F6
:105450000C0F03000000000000000000000000002E
:105460000004FCFC080404040CF8F0000080FFFFBA
:10547000889010101C0F03000000000000000000C6
:105480000000000000E0F81C04040408F8FC000020
:1054900000030F1810109088FFFF8000000000002C
:1054A0000000000000000000040404FCFC100804DC
:1054B000040C0C001010101F1F1010100000000032
:1054C0000000000000000000000000000000307834
:1054D000CCC48484840C1C0000001E181010101111
:1054E000190F06000000000000C0000000000000CE
:1054F00000040404FFFF0404040000000000000096
:105500000F1F1010100C0000000000000000000031
:10551000000000000004FCFE00000004FCFE00008F
:1055200000000F1F181010081F0F080000000000D7
:10553000000000000000000000040C3CFCC400005F
:10554000C43C0C0400000000010F1E0E010000000E
:10555000000000000000000000000000043CFCC44B
:1055600000E47CFC84807C040000071F0700000727
:105570001F07000000000000000000000000000005
:105580000004041C7CE4C0341C0404000010101C43
:105590001601131F1C18100000000000000000007E
:1055A0000000000000040C3CFCC400C43C040400E7
:1055B0000000C080C1370E010000000000000000A4
:1055C000000000000000000000001C0404C4F47C83
:1055D0001C0400000000101C1F17111010180E00F2
:1055E00000000000000000F80C04000000000000B3
:1055F000001028EF00000000000000000000003F45
:1056000060400000000000000000FF0000000000FB
:10561000000000000000FF0000000000000000008B
:105620000000FF00000000000000040CF800000073
:105630000000000000000000EF2810000000000043
:10564000000040603F00000000000000001806025B
:1056500002040810202030080000000000000000B4
:10566000000000000000000000000000000000003A
:105670000000F010101010FF10101010F0000000CB
:1056800000000F04040404FF040404040F000000DD
:105690004040405F555555755555555F4040400059
:1056A0000040200F094989790909090F20400000AD
:1056B00000FE02424ACA4A4ACA4A4A4202FE000060
:1056C00000FF40504C4340404F50505C40FF0000B2
:1056D0000000F888888888FF88888888F80000009B
:1056E00000001F080808087F888888889F80F000CD
:1056F00080828282828282E2A2928A868280800076
:10570000000000000040807F00000000000000005A
:10571000101010FF109008888888FF88888808007B
:105720000444827F01808040432C10284681800001
:105730000010101010D030FF30D0121C10100000DC
:1057400010080402010000FF00000102040810001C
:1057500004040484E43C2724242424E404040400F2
:1057600004020100FF0909090949897F00000000BE
:1057700000FE225A8600FE9292929292FE00000053
:1057800000FF04080700FF4020030C1422414000E2
:10579000008040201806800007182040800000008C
:1057A00001002070282621202024386000010100FB
:1057B000001012929292929292121202FE00000037
:1057C0000000003F101010103F0040807F000000DC
:1057D000000000C080808080808080FC8480808089
:1057E000808080C0C0000000000000FF7F4040407B
:1057F000404040FF40404040404040FF7F000000AC
:1058000000000000000000000000007F70000000A9
:105810000000000000000000000000000000000088
:1058200000000000000000FCF80000000000000084
:10583000000000000000000000000000FFFE020267
:1058400002020202020202FFFF020202020202023E
:105850000202FF0300000000000000001F1F0404FC
:1058600004040404040404FFFF0404040404040402
:1058700004041F0000000000000000000000000001
:10588000000000000000007F3F000000000000005A
:105890000000000000000000000000000000000008
:1058A00000000000000000000000000000000000F8
:1058B0000000000000F8F8F0F07020000000000088
:1058C00000000000000000000000000000000000D8
:1058D00000000000000000000000000000000000C8
:1058E0008000000000000000000000000000000038
:1058F0000000000000FFFFFFFF00000000000000AC
:105900000000000000000000000000008080000097
:105910000000000000000000000000000000000087
:1059200000FFFFFE06060606060606060606060633
:105930000606060606FFFFFFFF0606060606060623
:105940000606060606060606060606FFFFFFFF0712
:105950000200000000000000000000000000000045
:1059600000FFFFFF0000000000000000000000003A
:105970000000000000FFFFFFFF000000000000002B
:105980000000000000000000000000FFFFFFFF001B
:105990000000000000000000000000000000000007
:1059A00000FFFFFF181818181818181818181818DA
:1059B0001818181818FFFFFFFF18181818181818CB
:1059C0001818181818181818181818FFFFFFFF00D3
:1059D00000000000000000000000000000000000C7
:1059E00002010100000000000000000000000000B3
:1059F0000000000000FFFFFFFF00000000000000AB
:105A00000000000000000000000000010100000094
:105A10000000000000000000000000000000000086
:105A20000000000000000000000000000000000076
:105A30000000000000FFFFFFFF000000000000006A
:105A40000000000000000000000000000000000056
:105A50000000000000000000000000000000000046
:105A60000000000000000000000000000000000036
:105A700000000000001F1F0F0F00000000000000CA
:105A80000000000000000000000000000000000016
:105A900000000000000000000102020304050607E8
:105AA00008090A0B0C0D0E0F10100000000000007A
:105AB00000000102030406070809000000000102BB
:105AC00003040000E45A0008000000202C0000003D
:105AD000542F0008105B00082C000020240E00004A
